:100000000C94A6050C94CE050C94CE050C94CE054C
:100010000C94CE050C94CE050C94CE050C94CE0514
:100020000C94CE050C94CE050C94420B0C94B10BA1
:100030000C94CE050C94CE050C94CE050C94CE05F4
:100040000C94CE050C94CE050C94CE050C94CE05E4
:100050000C94CE050C94CE050C94CE050C94E30DB7
:100060000C94CE050C94CE050C94CE050C94CE05C4
:100070000C94CE050C94CE050C94CE050C94CE05B4
:100080000C94CE050C94CE050C94CE050C94CE05A4
:100090000C94CE050C94CE050C94CE050C94CE0594
:1000A0000C94CE050C94CE050C94CE0500000000F7
:1000B000003E5B4F5B3E3E6B4F6B3E1C3E7C3E1CEE
:1000C000183C7E3C181C577D571C1C5E7F5E1C0034
:1000D000183C1800FFE7C3E7FF0018241800FFE7EB
:1000E000DBE7FF30483A060E2629792926407F05AE
:1000F0000507407F05253F5A3CE73C5A7F3E1C1CC4
:1001000008081C1C3E7F14227F22145F5F005F5F83
:1001100006097F017F006689956A6060606060946F
:10012000A2FFA29408047E040810207E2010080874
:100130002A1C08081C2A08081E101010100C1E0C7F
:100140001E0C30383E3830060E3E0E060000000011
:100150000000005F00000007000700147F147F14F8
:10016000242A7F2A1223130864623649562050003D
:1001700008070300001C2241000041221C002A1C29
:100180007F1C2A08083E0808008070300008080814
:100190000808000060600020100804023E51494534
:1001A0003E00427F400072494949462141494D3352
:1001B0001814127F1027454545393C4A49493141B9
:1001C000211109073649494936464949291E000087
:1001D00014000000403400000008142241141414DC
:1001E0001414004122140802015909063E415D59C8
:1001F0004E7C1211127C7F494949363E41414122D1
:100200007F4141413E7F494949417F090909013EFA
:10021000414151737F0808087F00417F4100204021
:10022000413F017F081422417F404040407F021C33
:10023000027F7F0408107F3E4141413E7F0909094A
:10024000063E4151215E7F09192946264949493216
:1002500003017F01033F4040403F1F2040201F3FDC
:100260004038403F63140814630304780403615961
:10027000494D43007F4141410204081020004141A3
:10028000417F04020102044040404040000307084F
:100290000020545478407F2844443838444444284B
:1002A000384444287F385454541800087E090218F2
:1002B000A4A49C787F0804047800447D400020407A
:1002C000403D007F1028440000417F40007C0478BE
:1002D00004787C080404783844444438FC18242406
:1002E0001818242418FC7C08040408485454542486
:1002F00004043F44243C4040207C1C2040201C3C03
:100300004030403C44281028444C9090907C4464F9
:10031000544C44000836410000007700000041368C
:10032000080002010204023C2623263C1EA1A16112
:10033000123A4040207A3854545559215555794144
:100340002154547841215554784020545579400C1B
:100350001E527212395555555939545454593955FC
:100360005454580000457C410002457D420001453F
:100370007C40F0292429F0F0282528F07C545545AC
:10038000002054547C547C0A097F4932494949323F
:100390003248484832324A4848303A4141217A3A54
:1003A00042402078009DA0A07D39444444393D401E
:1003B00040403D3C24FF2424487E4943662B2FFCCB
:1003C0002F2BFF0929F620C0887E09032054547979
:1003D000410000447D413048484A32384040227A4A
:1003E000007A0A0A727D0D19317D2629292F2826C7
:1003F0002929292630484D402038080808080808CF
:100400000808382F10C8ACBA2F102834FA00007B27
:10041000000008142A142222142A1408950022002D
:1004200095AA005500AAAA55AA55AA000000FF00E7
:10043000101010FF00141414FF001010FF00FF1024
:1004400010F010F0141414FC001414F700FF000056
:10045000FF00FF1414F404FC141417101F10101FD5
:10046000101F1414141F00101010F0000000001FC3
:10047000101010101F10101010F010000000FF10CE
:100480001010101010101010FF10000000FF1400CA
:1004900000FF00FF00001F10170000FC04F41414FC
:1004A0001710171414F404F40000FF00F7141414C8
:1004B00014141414F700F7141414171410101F1048
:1004C0001F141414F4141010F010F000001F101F6B
:1004D0000000001F14000000FC140000F010F010D9
:1004E00010FF10FF141414FF141010101F00000050
:1004F00000F010FFFFFFFFFFF0F0F0F0F0FFFFFF54
:100500000000000000FFFF0F0F0F0F0F38444438AA
:10051000447C2A2A3E147E02020606027E027E02E5
:1005200063554941633844443C04407E201E200604
:10053000027E020299A5E7A5991C2A492A1C4C7241
:1005400001724C304A4D4D303048784830BC625AC8
:10055000463D3E494949007E0101017E2A2A2A2A58
:100560002A44445F444440514A444040444A514034
:100570000000FF0103E080FF000008086B6B0836F5
:1005800012362436060F090F060000181800000066
:100590001010003040FF0101001F01011E00191D55
:1005A0001712003C3C3C3C0000000000F0F89C8E20
:1005B0008783878E9CF8F00000FEFF03030303038C
:1005C000070EFCF80000FEFF0303030303070EFC05
:1005D000F80000FFFF00000000000000FFFF000027
:1005E000FEFF8383838383C7EE7C380000F8FC0E14
:1005F00007030303070EFCF800003F7FE0C0808084
:10060000C0E07F3FFFFF01010101010101FFFF0089
:1006100000FFFF0C0C0C0C1C3E77E3C100007FFFB9
:10062000C0C0C0C0C0E0703F1F00001F3F70E0C0EE
:10063000C0C0E0703F1F00007FFFC1C1C1C1C1E366
:10064000773E1C00001F3F70E0C0C0C0E0703F1F3D
:10065000000000000001FFFF01000000D5F08D1434
:10066000A1C881CFD9F1AF20007F3F2294AA9295F3
:1006700094446942C252AA2A559552459426244C64
:10068000A5AA52552949942624543A9D9444694276
:100690004255AA2A55952A4594262494AA2A559566
:1006A00054446942C274BA949A2B4D48285555AAAD
:1006B0002A2589D284844A56A5AA5292284D4828D0
:1006C000A9A44AA5646942E2542A95724C6942423F
:1006D000E77AD52BC794262494325BB9544491AD64
:1006E0003B573BA96AD7B92CA35D77AE7652D5AEFE
:1006F000735946BBEE5CEDA4AA5DE7B28C76DDB91A
:10070000DA4955BBCE6519EDBA73B593AA769DCB80
:1007100032DA75E76A2755ED3A9765B4EBCED54ED8
:10072000AADA752ECB68D79DAB9D54B5EB5C96D1FC
:10073000AE3B573BA96AD7B92CA35D77AE7652D5AD
:10074000AE735946BBEE5CEDA4AA5DE7B28C76DDD4
:10075000B9DA4955BBCE6519EDBA73B593AA769D42
:10076000CB2A42A92A59494994264CAA5B9DFA7F73
:10077000BBDDD54E2A5D59A94E7D55AAEAADB2B969
:100780009D73AEB6DBEDA94F7D2B599AD0A65BF5D4
:10079000555FF5E5F49AD0A6DB5EF5553BA7B78C1F
:1007A00036DDB9CE75293593528CA7B66E7BD557F9
:1007B000BDD55B469B6E75577DD55B9F65B4E9B62D
:1007C000BAEDA9D796D1A6634AA5522947B465B414
:1007D000E97675AB5BED98D2848452662B978A28B4
:1007E000B275AF7AA5EE5EF52ACB68D784DE6F9D31
:1007F000D3F9B47356D9A4522EA966E3E77BD53654
:1008000026B9DD26D536D75BE9AC92CE11A6753A6E
:100810009D3EBBDD2AA9D35B2509D34BDEB6DBD4D5
:1008200036C25ED5EA5697BB5CAF5AA7B74A12A646
:10083000753A9D3EBBDD2AA9D35B257DACBDAAD50B
:10084000AD2E77B95EB5CE2AABAC9ED5AE7BD52B9F
:1008500075F7AA5759452855252B2989D2844B75F8
:100860003AFB56A7731D535A49A9ECCE451853BA03
:10087000ED76BBD5E95EC5E89C54D249FBB9EC4A9C
:100880002E95738AB9ED76BBD5D1B6DD6EB73A66D3
:10089000A9EC562AFB3FA35476BBB5DB6DCA6EB7F5
:1008A0005B1D5DDBED76ABA36DBBDD6E758C52D948
:1008B000EDD66EB729BBDD6E75D48452662B978A50
:1008C00028B2B57352B55A2AE7B28C76ED9C54AD76
:1008D00096CAB92CA35D3B2755ABA5722ECB68D722
:1008E000CE49D56AA99CCB32DAB57352B55A2AE7FC
:1008F000B28C76ED9C54AD96CAB92CA35D3B2755BE
:10090000ABA5722ECB68D7CE49D56AA99CCB32DA7B
:10091000B57352B55A2AE7B28C76ED9C54AD96CA9F
:10092000B92CA35D3B2755ABA5722ECB68D7CE491A
:10093000D56AA99CCB32DAB57352B55A2AE7B28A86
:1009400050AA4A565212A509094BA9AA54554A154C
:10095000519A903095AA4A55A524519A9050E9741D
:100960005212A5090955A9AA5455AA14519A905092
:10097000AAAA54555211A50909D3E9526AAE3421E5
:10098000A15455A9AA94244A13122A5995AA4A494E
:10099000A23421A1A4922A9592A5098953A954CAE7
:1009A00031A509099DEB55AF1C539A9050CA6CE5CF
:1009B000521145B6EE5C29652FA53A9765B4EBCE8A
:1009C0009552F652AA735946BBEE5C29652FA53A9B
:1009D0009765B4EBCE9552F652AA735946BBEE5CBE
:1009E00029652FA53A9765B4EBCE9552F652AA73B6
:1009F0005946BBEE5C29652FA53A9765B4EBCE95B9
:100A000052F652AA735946BBEE5C29652FA53A9758
:100A100065B4EBCE9552F652AA735946BBEE5C29EB
:100A2000652FA53A9765B4EBCE9552F652AA735945
:100A300046BBEE5C29652FA53A971D080B00020204
:100A40000200000904000001020200000524001059
:100A50000105240101010424020605240600010702
:100A600005810310004009040100020A000000078C
:100A7000050202400000070583024000000403094C
:100A80000412010002EF02014041233680000101FF
:100A900002030141726475696E6F204C4C43004142
:100AA000726475696E6F204C656F6E6172646F0061
:100AB0000808FEFF83EBEB83FFFEFEFF8BABABA3CF
:100AC000FFFEFEFFBBABAB83FFFEFEFFE3EFEF835A
:100AD000FFFEFEFFA3ABAB8BFFFEFEFF83ABAB8F36
:100AE000FFFEFEFFFBFB8BF3FFFEFEFF83ABAB8342
:100AF000FFFEFEFFE3ABAB83FFFEFEFF83FF83BB86
:100B000083FEFEFFFFBBBBC3FFFEFEFFC39B9BC379
:100B1000FFFEFEFF83EFD7BBFFFE3F7F7B7970793F
:100B20007B3F3F7F73736C73733F3F7F787063705D
:100B3000783F3F7F7B7160717B3FFEFFFFFFFFFFD0
:100B4000FFFE3F7F7F7F7F7F7F3F600E11241FBEB0
:100B5000CFEFDAE0DEBFCDBF11E0A0E0B1E0E8E129
:100B6000FCE202C005900D92A437B107D9F726E048
:100B7000A4E7B1E001C01D92A436B207E1F715E089
:100B8000C6EAD5E004C02197FE010E940416C53ACA
:100B9000D107C9F70E947D0E0C940A160C94000030
:100BA000E0E1F2E0A0E0B8E000800EBC8111012C91
:100BB0001197A0FDFDCF0192B9F70DB40895EF9202
:100BC000FF920F931F93CF93DF93DC01E0EBFAE0EA
:100BD0009491E1EBFAE02491092F10E0C2EBDAE006
:100BE0004423E1F0C1E0D0E0822F877011F4D0E01F
:100BF000C0E0E22FE695E695E695EC0FFD2FF11D9E
:100C0000E09F7001E19FF00CF09FF00C11244E9DCD
:100C1000E0014F9DD00D1124CE54D54FA8014A0FAD
:100C20005B1F4115510509F452C0A038B1050CF005
:100C30004EC0FB01E20FF11DEF2B09F448C06034F8
:100C400071050CF044C0209709F441C033E075955C
:100C500067953A95E1F74038510514F090E89A1BF2
:100C600031E0822F877009F430E02695269526958D
:100C7000230FAB01420F511D4930510514F028E0FC
:100C8000261B362FAB015695542F44275795479571
:100C90004A0F5B1F405F5D4F832F861B8217B8F49E
:100CA000B0E0A0E0A91768F4FE01EA0FFB1F8491F1
:100CB00037FD05C07A01EA0EFB1EF701808311960D
:100CC000F1CFC00FD11F40585F4F3F5FE5CFDF919D
:100CD000CF911F910F91FF90EF900895FC018091AB
:100CE0000F02882311F13FB7F89482E08093E90066
:100CF0002091F200822F90E01816190614F481E07A
:100D000090E0882339F0289844E640930E02409101
:100D1000F1004083222339F02091F200211103C019
:100D20002BE62093E8003FBF08958FEF9FEF0895D3
:100D30002FB7F89483E08093E9009091E800892F21
:100D4000807295FF04C09091F20080E4891B2FBF50
:100D500008958091060281110DC082E08093020205
:100D600084E080930302109205021092040281E055
:100D70008093060282E092E00895CF93DF931F9262
:100D8000CDB7DEB76983DC01ED91FC910280F38180
:100D9000E02D41E050E0BE016F5F7F4F09950F905D
:100DA000DF91CF91089583E08093E9008091F20074
:100DB000882319F08AE38093E80008950E9498063A
:100DC00090E00895CF93DF931F92CDB7DEB7FC017B
:100DD0008485958597FD08C02FEF3FEF35872487E1
:100DE0000F90DF91CF910895CE0101960E946E067B
:100DF000019719F4898190E0F3CF8FEF9FEFF0CF47
:100E00000F931F93CF93DF931F92CDB7DEB78C0163
:100E1000FC018485958597FF0BC0CE0101960E9449
:100E20006E06019771F4898190E0F80195878487B7
:100E3000F801848595850F90DF91CF911F910F91D7
:100E400008958FEF9FEFF1CFFC018485958597FD85
:100E50000BC09FB7F89482E08093E9008091F20084
:100E60009FBF90E0019608959FB7F89482E0809329
:100E7000E9008091F2009FBF90E008954091FC014D
:100E80005091FD012091FA013091FB014217530767
:100E9000B4F49091E8009570E1F39091E80092FD30
:100EA00019C08093F1008091FC019091FD010196A1
:100EB0008F739927892B19F48EEF8093E800809126
:100EC000FC019091FD0101969093FD018093FC013E
:100ED00081E0089580E00895DF92EF92FF920F93F2
:100EE0001F93CF93DF93D82E8A01EB017B01E40E91
:100EF000F51ECE15DF0559F0D7FE12C0FE01849114
:100F00000E943E0721968111F4CF0FEF1FEFC80119
:100F1000DF91CF911F910F91FF90EF90DF90089597
:100F20008881EECF0F931F93CF93DF931F92CDB79E
:100F3000DEB782E0898342E450E06BE37AE080E848
:100F40000E946C070E94A906DC0112960D911C916B
:100F50000115110589F0D801ED91FC910280F38112
:100F6000E02DBE016F5F7F4FC801099597FD04C05A
:100F7000F80100851185ECCF89810F90DF91CF9129
:100F80001F910F910895615030F02091F100FC0104
:100F900020830196F8CF289884E680930E02089566
:100FA000AF92BF92CF92DF92EF92FF920F931F9377
:100FB000CF93DF936C017B018B01040F151FEB01B5
:100FC0005E01AE18BF08C017D10759F06991D6016C
:100FD000ED91FC910190F081E02DC6010995892BDE
:100FE00079F7C501DF91CF911F910F91FF90EF909D
:100FF000DF90CF90BF90AF9008953FB7F894809165
:10100000790190917A01A0917B01B0917C0126B584
:10101000A89B05C02F3F19F00196A11DB11D3FBF30
:10102000BA2FA92F982F8827BC01CD01620F711DFF
:10103000811D911D42E0660F771F881F991F4A95F9
:10104000D1F708958F929F92AF92BF92CF92DF9285
:10105000EF92FF926B017C010E94FD074B015C0146
:10106000C114D104E104F104B9F00E94FD0768192C
:1010700079098A099B09683E73408105910580F3CF
:1010800021E0C21AD108E108F10888EE880E83E059
:10109000981EA11CB11CE4CFFF90EF90DF90CF9081
:1010A000BF90AF909F908F9008958F929F92AF9234
:1010B000BF92CF92DF92EF92FF920F931F93CF9345
:1010C000DF936C017B018A0180910C01882309F474
:1010D0005CC080910F02882309F457C080910102FF
:1010E00080FF05C08091E00082608093E000E8010D
:1010F000B12C8AEFA82E93E0892E2AE3922E209716
:1011000011F4BB20D9F10E94980681110AC0AA945B
:10111000AA20D9F161E070E080E090E00E9422080E
:10112000EECF8C171D0611F00CF08C2F9FB7F894A2
:101130008092E9002091E80025FD02C09FBFDFCF2B
:10114000282F30E0C21BD30BF701815020F04191D2
:101150004093F100FACFE20EF31EBB2021F09092F3
:10116000E800B12CEBCF8091E80085FDE7CF9092AD
:10117000E800BB24B394209709F3F3CF5D9884E68D
:1011800080930002101611063CF081E090E0F60119
:101190009383828310E000E0C801DF91CF911F911B
:1011A0000F91FF90EF90DF90CF90BF90AF909F9006
:1011B0008F9008952FB7F894609175017091760122
:1011C00080917701909178012FBF08952D9A08950D
:1011D000BC0190E080E00C9422088FB18095807F64
:1011E000669B88601C9B8460089520E191E061FD0E
:1011F00094E060FD990F62FD9295687F269FD00173
:101200001124A80FA05FBD4F8C9140FF03C0892B14
:101210008C93089590958923FBCFAF92BF92CF9284
:10122000DF92EF92FF920F931F93CF93DF935B01B7
:10123000EC016C01C40ED11C8B01020F111DCC15E9
:10124000DD05ACF47501C8010134110514F080E42A
:1012500090E0E816F9064CF440E0B701CE010E9498
:10126000F5088FEFE81AF80AEECF2196E8CFDF9164
:10127000CF911F910F91FF90EF90DF90CF90BF9093
:10128000AF90089580E0E0E1F2E081118FEF00245B
:1012900081938193819381930394D1F71092B70145
:1012A0001092B6011092B9011092B80108958F9270
:1012B0009F92AF92BF92CF92DF92EF92FF920F93E5
:1012C0001F93CF93DF936D3089F0C090B601D0901B
:1012D000B7016A30D1F41092B9011092B80188E0D8
:1012E000C80ED11CD092B701C092B60181E090E047
:1012F000DF91CF911F910F91FF90EF90DF90CF90F2
:10130000BF90AF909F908F9008950091B801109179
:10131000B901E5E06E9FE0011124C455DF4F58018B
:10132000F12CF5E0E12CFF1629F0CE010196FE012B
:10133000E490EC01912C812CF0E8AF16B10458F444
:10134000B601680D791D6034710528F44E2D417089
:10135000C5010E94F508E6948FEF881A980AE8E024
:101360008E16910449F7F394FFEFAF1ABF0A86E097
:10137000F812D7CF0A5F1F4F1093B9010093B8013D
:10138000B5CF9091BA01982329F49091BB0198238D
:1013900081E009F480E00895CF93C82F0E94ED0802
:1013A000982F9C2381E09C1380E0CF91089580E0EA
:1013B0000C94D0051F93CF93DF93DC0130E020E045
:1013C00050E040E011E0C1E0D0E02617370791F18E
:1013D00014968C911497811115C014961C93149730
:1013E00012968D919C911397ED91FC911197E80FB6
:1013F000F91FE4911596EC931597019613969C931B
:101400008E93129714969C91149715968C9115971C
:10141000892349F0FE01022E02C0EE0FFF1F0A943D
:10142000E2F74E2B5F2B990F14969C9314972F5F26
:101430003F4FCBCFCA01DF91CF911F9108955F92AB
:101440006F927F928F929F92AF92BF92CF92DF92D4
:10145000EF92FF920F931F93CF93DF93109281012E
:101460009AE0992E2DE0822ED0918101D43008F09F
:1014700066C010928001ED2EF12C870184E0000FF0
:10148000111F8A95E1F7680188E0C80ED11CC09150
:101490008001CD3008F04FC084E0C89FF0011124D6
:1014A000E454FE4FEE0DFF1D80816090F1017090BD
:1014B000F0019EE9980F9230D0F0C61106C0D71106
:1014C00004C09091F701911112C0C99D50011124DF
:1014D000682D0E94E415582E492FB801C5010E94BD
:1014E000DF054DE0450DB601C5010E94DF0584E032
:1014F000689EF0011124E454FE4FE70DF11D808138
:101500008236A9F4C61113C0D71111C08091F7011A
:10151000882369F0C99D5001112441E1B801C5013A
:101520000E94DF0542E1B601C5010E94DF05CF5FE1
:10153000C0938001ACCFDF5FD093810195CFDF9165
:10154000CF911F910F91FF90EF90DF90CF90BF90C0
:10155000AF909F908F907F906F905F900895409193
:1015600080018CEB91E035E020E03150A9F0FC01E6
:101570004EE0415071F05081533649F4A22FB0E053
:10158000AE57BE4F5C912F5F5336C1F350833496F4
:10159000F0CF01964DE0E9CF4093800184E0809345
:1015A00081010895089590E080E00895CF93DF933E
:1015B000FC0101900020E9F73197AF01481B590B5E
:1015C000BC0180E696E00E94D007EC0142E050E0CA
:1015D00066E371E080E696E00E94D0078C0F9D1FC5
:1015E000DF91CF9108950C946B158F929F92AF92DB
:1015F000BF92CF92DF92EF92FF92CF93DF93C2E838
:10160000D1E0C12CD12C760183E3882E912CA12C22
:10161000B12C83E3C816D104E104F10471F10E94F6
:101620001315A50194012C193D094E095F090E946B
:101630008115DC01CB018C0D9D1DAE1DBF1D2881C8
:10164000E82FF0E0EE57FE4F8081899320838FEFE3
:10165000C81AD80AE80AF80A84E3C816D104E104D3
:10166000F104B9F6DF91CF91FF90EF90DF90CF902A
:10167000BF90AF909F908F90089583E390E0A0E09B
:10168000B0E0DDCF1F920F920FB60F9211248F930F
:101690009F938091E1009091E100937F9093E1000E
:1016A00083FF0FC01092E90091E09093EB0010923D
:1016B000EC0092E39093ED0010920F0298E090936B
:1016C000F00082FF22C093E09093E9009091F20035
:1016D000992319F09AE39093E800909100029923DE
:1016E00041F090910002915090930002911101C03D
:1016F0005D9A90910E02992341F090910E029150C3
:1017000090930E02911101C0289A84FF18C0809115
:10171000E2008E7E81608093E2008091E1008F7E06
:101720008093E100809101028E7E806180930102AE
:101730009F918F910F900FBE0F901F90189580FF73
:10174000F7CF8091E2008E7E80618093E2008091ED
:10175000E1008E7E8093E100809101028E7E8160A7
:10176000E5CF1F920F920FB60F921124CF92DF9206
:10177000EF92FF920F931F932F933F934F935F939B
:101780006F937F938F939F93AF93BF93EF93FF9349
:10179000CF93DF93CDB7DEB76C97DEBFCDBF10928E
:1017A000E9008091E80083FF25C068E0CE014596FE
:1017B0000E94C30782EF8093E8008D8987FF39C0BC
:1017C0009091E80090FFFCCF982F907609F034C1FB
:1017D0009E894F89588D2F89F88C911131C080389E
:1017E00061F58091FF018093F1001092F1008EEF7E
:1017F0008093E8006C960FB6F894DEBF0FBECDBFA5
:10180000DF91CF91FF91EF91BF91AF919F918F9118
:101810007F916F915F914F913F912F911F910F9108
:10182000FF90EF90DF90CF900F900FBE0F901F9022
:1018300018959EEF9093E800C7CF1092F100D5CF96
:10184000913059F48111D3CF4130510581F6809107
:10185000FF018D7F8093FF01CACF933049F481113E
:10186000C6CF4130510519F68091FF018260F2CF59
:10187000953041F48091E80080FFFCCF20682093F0
:10188000E300B5CF963009F0A9C00B8D1C8D22E086
:101890001092E9001092FD011092FC01F2122EC08C
:1018A0001092FB011092FA010E9492071F8299E0A8
:1018B0009983FA8291E09E8390EA98879AEF9987BC
:1018C0002091FC013091FD01275F3F4F3C832B832A
:1018D0008D831092E9001092FD011092FC0110938B
:1018E000FB010093FA0149E050E0BE016F5F7F4FBA
:1018F00080E00E946C070E94920779CF1093FB0151
:101900000093FA010E94A906DC0112960D911C9128
:101910000115110509F451C1D801ED91FC91048024
:10192000F581E02DBE016B5E7F4FC80109950097E0
:1019300009F03EC1F80100851185EACFF3E0FF12FE
:101940000EC08F89882309F440C0823061F440E8DA
:1019500060E18FE99AE00E942D0E811148CF81E26B
:101960008093EB0047CF813029F440E86BE083E9B6
:101970009AE0F1CF833099F70E94A906DC01129614
:10198000ED90FC908E010F5F1F4F6801E114F10490
:1019900079F0D701ED91FC910680F781E02DB80137
:1019A000C7010995080F111DF701E084F184EECFFE
:1019B000D8011C92F60101900020E9F73197BF0190
:1019C0006C197D0940E0C601C6CF6DE77AE0FB01E6
:1019D000449150E080E80E946C0709CF973009F4E9
:1019E000BECF983021F481E08093F10000CF993090
:1019F00009F0FDCE837009F0B2CFE2E1F1E081E0C1
:101A000031E096E32191222371F08093E900309335
:101A1000EB00DF0111972C912093EC009093ED00E7
:101A20008F5F873079F78EE78093EA001092EA00A3
:101A30008F8980930F02DBCE8B8D9C8D1092E900F5
:101A40001092FD011092FC019093FB018093FA012A
:101A5000898D811192C08E899D89913A49F4813294
:101A600009F07DCF47E050E065E071E080E0B3CF62
:101A7000913209F074CF833269F48F89988DB0E088
:101A8000A0E08093010190930201A0930301B09321
:101A90000401ADCE803269F48091E80082FFFCCF72
:101AA00067E085E091E00E94C3078BEF8093E80038
:101AB0009ECE823209F09BCE8F8980930C01EEEF8F
:101AC000FFE7859194918B3F9C4D51F1E0E0F8E068
:101AD0008091050190910601A0910701B091080144
:101AE000803B9440A105B105F1F480910C0180FD8B
:101AF0001AC0EE3F8AE0F80789F587E797E79183F8
:101B00008083809160008093FE0188E19BE00FB6A6
:101B1000F894A895809360000FBE9093600067CE04
:101B2000EEEFFAE0D5CF808191818737974709F0B2
:101B30005ECEA8958091600088618093600080915E
:101B4000FE0180936000EE3F2AE0F20789F0809169
:101B5000FE0A9091FF0A9183808349CE8081918112
:101B60008737980751F29093FF0A8093FE0AC5CFFA
:101B70001092FF0A1092FE0A3ACE0E94A906DC01DA
:101B800012960D911C910115110509F4E8CED801AA
:101B9000ED91FC910190F081E02DBE016B5E7F4FD5
:101BA000C8010995811123CEF80100851185EBCF7D
:101BB000181619060CF41BCED2CEF1E0FF12BECEE1
:101BC00061E87AE004CF1F920F920FB60F921124B2
:101BD0002F933F938F939F93AF93BF938091750102
:101BE00090917601A0917701B091780130917401C4
:101BF00023E0230F2D3758F50196A11DB11D209329
:101C000074018093750190937601A0937701B0934E
:101C100078018091790190917A01A0917B01B09136
:101C20007C010196A11DB11D8093790190937A01E9
:101C3000A0937B01B0937C01BF91AF919F918F9155
:101C40003F912F910F900FBE0F901F90189526E88F
:101C5000230F0296A11DB11DD2CFEF92FF920F93D9
:101C60001F93CF93DF93F82E192FE62E042F81E0D8
:101C7000860F880F0E943E0783E00E943E07CF2D0B
:101C8000D12FEC0EFD2EF11CCE15DF05B9F007FFAC
:101C900013C0FE0184910E943E07182F80E00E942D
:101CA0003E07812321968111EFCFDF91CF911F91C4
:101CB0000F91FF90EF9008958881EDCF81E0F5CFEF
:101CC000E0E1F6E01382128288EE93E0A0E0B0E05B
:101CD00084839583A683B7838CE191E0918380838D
:101CE0008FEF9FEF95878487E0E6F6E013821282FC
:101CF0008EE291E0918380830895CF93DF9300D0AB
:101D000000D000D0CDB7DEB7789484B5826084BDB2
:101D100084B5816084BD85B5826085BD85B58160EF
:101D200085BD80916E00816080936E00109281006D
:101D30008091810082608093810080918100816028
:101D400080938100809180008160809380008091E9
:101D500091008260809391008091910081608093D6
:101D60009100809190008160809390008091C100EB
:101D700084608093C1008091C10082608093C10023
:101D80008091C10081608093C1008091C300816017
:101D90008093C3008091C00082608093C0008091D6
:101DA000C20081608093C20080917A008460809339
:101DB0007A0080917A00826080937A0080917A0024
:101DC000816080937A0080917A00806880937A00A5
:101DD00010920F021092FF01109201028091D70021
:101DE00081608093D70080EA8093D80089B58061B4
:101DF00089BD89B5826089BD09B400FEFDCF61E06F
:101E000070E080E090E00E9422088091D8008F7CF2
:101E100080618093D8008091E000807F8093E00013
:101E20008091E1008E7E8093E1008DE08093E2005E
:101E3000559A209A81EC80937C0085B1806F85B99A
:101E400084B1877E84B984B1876E84B95E9A5F98C5
:101E50008AB1806D8AB9769A6E9881B3806F81BBA2
:101E6000899880B38D7080BB80E58CBD81E08DBD8D
:101E700085E090E00E94E8085F9A85E090E00E948B
:101E8000E8085E985C98ECE5F6E084918EBD000071
:101E90000DB407FEFDCF319606E0E936F007A9F74D
:101EA0005C9A81E8809364008091650081608093F2
:101EB00065000E94D70980E80E94CC098823A9F018
:101EC0005C9885EA8EBD00000DB407FEFDCF5C9ADC
:101ED0002E982F982D9880916400806280936400E2
:101EE00081E083BF889513BEFCCF84E00E94CC09BB
:101EF000882309F448C02D9884E80E94CC098823DF
:101F0000E1F00E94E60888EC90E00E94E8082F9833
:101F100082E090E00E946B158F3F29F06FEF82E026
:101F200090E00E94731584EF91E00E94E8082F9AD8
:101F300084E80E94CC098111FBCF84E10E94CC0986
:101F40008823E1F00E94E60888EC90E00E94E8080F
:101F50002E9882E090E00E946B15882329F060E0C3
:101F600082E090E00E94731584EF91E00E94E808FF
:101F70002E9A84E10E94CC098111FBCF88EC90E07D
:101F80000E94E808B2CF0E94E60882E090E00E943A
:101F9000F30A8823D9F13E9A3F9A81E090E00E94AB
:101FA000F30A182F1470712E81FF10C011112E9892
:101FB00001EF1FEFE8E0AE2EB12C80E40E94CC09C7
:101FC000882339F12E9A2F9A0E94E60882E390E046
:101FD0000E94E8080E94ED088111F8CF81E2809309
:101FE0000001A3E63A2EBAE56B2E712C0E94DA08A6
:101FF00080917D01882309F4CAC010927D0180E0A0
:1020000090E0892B99F30E940000F0CF3E983F9812
:10201000C4CF772029F00430110511F42E9A2F989F
:1020200081E00E94D005980117FF04C022273327C2
:10203000201B310B27703327C80117FD079673E06B
:10204000959587957A95E1F717FF05C00197A5014A
:10205000421B530B9A01AC015695542F44275795B8
:10206000479540575D4FB0E0A0E02501421A530A62
:102070008E3F6FEF960709F43AC07A01E0E8EE1A56
:10208000F10870E060E0FD01E455FA4F4F018F3F29
:10209000980779F0F401E60FF71FE491F0E06F0183
:1020A000022E01C0CC0C0A94EAF7F701D488CD289F
:1020B000C48A2115310599F0F401E60FF71FE49168
:1020C0006A01C60ED71EF0E01F01042C02C0359431
:1020D00027940A94E2F7F60164882628248A6F5F21
:1020E0007F4FFFEFEF1AFF0A6835710581F6019601
:1020F000A85ABF4F40585F4FA03BB10509F0B8CF79
:102100000E94D7098FE090E00E94E8080F5F1F4F00
:102110000931110509F051CF772011F02F9A2D9830
:1021200080E991E00E94E8080E94E60881E090E0E2
:102130000E94F30A80FF4ACF8AE090E00E94F30AEF
:102140009FEF980F9E3F08F041CF22E330E030939D
:10215000B9012093B80128E330E03093B701209310
:10216000B6010BE010E0682F80E696E00E94570968
:10217000C8010E94F30A0F5F1F4F0131110599F743
:102180000E94D70988EE93E00E94E8081FCF809153
:102190007E01062F081B802F90910001091748F43B
:1021A0008F5F891708F02BCF81E083BF889513BE1E
:1021B00026CFFF24F394F0927D0160937E0100917D
:1021C000F8011091F9010F5F1F4F1093F90100936F
:1021D000F8018091BB018093BA010E94ED088093C1
:1021E000BB01C8016AE070E00E94F015892B29F458
:1021F0008091F7018F258093F7010E944209E091B9
:10220000F601E73008F010C3F0E0E75FFE4E0C94F3
:10221000041610113A129B12F212B8133B146714F1
:102220000E94420989E696E09A8389831C821B8278
:102230001D821E8268E070E0CE0101960E94DA09DC
:1022400001964C0168E070E0CE0101960E94DA0927
:102250008C0161E070E0CE0101960E94DA09181449
:1022600019040CF06AC00F5F1F4F101611060CF016
:1022700064C06801F3E0D594C794FA95E1F707705C
:102280001127012B19F01FEFC11AD10A582E412C2A
:102290002224239410E000E0F12CE12CEC14FD0446
:1022A0000CF04BC0AA24A394B12C61E070E0CE01E5
:1022B00001960E94DA09892B21F422E0A20EB11CBA
:1022C000F4CFB501CE0101960E94DA09019630E003
:1022D00020E02817390770F551104228622D660F4B
:1022E00031F5A7014F5F5F4F4930510580F4003849
:1022F00011056CF4F701F695FE2FEE27F795E7959B
:10230000E00FF11FE05FFD4F7081472A40820F5FB1
:102310001F4F22242394081519052CF07A0122243A
:10232000239410E000E02F5F3F4F462ED2CF262EA1
:10233000642DF9CF31E05326B1CF0E94D7090E9416
:10234000DA086093F2017093F3018093F4019093A3
:10235000F5016B017C0140EDC40E47E0D41EE11C89
:10236000F11C0E94DA086C157D058E059F05C8F3E7
:102370002CE04AE661E370E08BE090E00E940D09FA
:102380008DE090E09093B9018093B80103E310E0F1
:102390001093B7010093B60189E391E00E94D60A39
:1023A00084E390E09093B9018093B8011093B70152
:1023B0000093B60180E491E00E94D60A80E590E0A7
:1023C0009093B9018093B8011093B7010093B601BF
:1023D00085E491E00E94D60A0E94D70936E1E32EF7
:1023E000F12C88E00E94CC098111BEC184E00E94DA
:1023F000CC098823B1F32AE04AE662E370E08BE07F
:1024000090E00E940D09F092B901E092B80110939A
:10241000B7010093B6018CE491E00E94D60A86E3EE
:1024200090E09093B9018093B8011093B7010093A5
:10243000B60182E591E00E94D60AABE4B0E0B09329
:10244000B901A093B8011093B7010093B60189E4D4
:1024500091E00E94D60A7092B9016092B80110937F
:10246000B7010093B60186E591E00E94D60A0E946A
:10247000D709B7CF809164008E7F809364008091EC
:102480007A00806480937A0080917A0086FDFCCF88
:1024900000917800109179000E94FD07AB01BC010A
:1024A000C801B0E0A0E0DC01992788278C019D01DC
:1024B000040F151F261F371FC901B80120916400A2
:1024C000216020936400611571058105910511F06B
:1024D0000E946215E2E8F1E080E081938F5F84332F
:1024E000E1F7309180018CEB91E025E0215051F033
:1024F000FC013EE0315019F030823496FBCF01965A
:102500003DE0F4CF3093800184E08093810110920C
:10251000F1011092F0010E94F50A0E94AF0A0E9498
:10252000DA086093F2017093F3018093F4019093C1
:10253000F50182E01AC10E94DA08AB01BC0180916A
:10254000F2019091F301A091F401B091F501805551
:102550009B4FAF4FBF4F84179507A607B70708F0EB
:1025600063C1209180014CEB51E095E082E69150EF
:10257000D1F0FA012EE0215091F03081311101C0EB
:10258000808330813D3009F4808330813A3109F411
:1025900080833081373209F480833496ECCF4F5FEB
:1025A0005F4F2DE0E4CF2093800184E08093810190
:1025B0000E94AF0A8091F1012091F00130E041E0EA
:1025C000480F14E0819FF0011124E454FE4FE20F04
:1025D000F31F9081923621F08093F10183E0C5C012
:1025E000842FEDCF88E00E94C109882319F086E08E
:1025F0008093F60184E00E94C109882319F084E0E9
:102600008093F60180E80E94C109882339F0809107
:10261000F001882319F081508093F00180E10E943D
:10262000C109882339F08091F001833019F08F5F60
:102630008093F00180E20E94C109882339F08091E3
:10264000F101882319F081508093F10180E40E9408
:10265000C109882339F08091F1018C3019F08F5F26
:102660008093F1011092810180917F01909180010E
:10267000ECEBF1E035E020E03150C9F0DF018D9165
:10268000813031F08E3021F08B3111F0883269F4D5
:1026900090E0592F580F9D3039F04081541301C0FC
:1026A0002F5F9F5F3496F5CF835FFD01E5CF909359
:1026B000800194E09093810180937F01203309F0A1
:1026C000B3C01092F7010E941F0A0E94D7090E940E
:1026D000DA086093F2017093F3018093F401909310
:1026E000F5016B017C0128E5C20E22E0D21EE11C3F
:1026F000F11C0E94DA086C157D058E059F05C8F354
:102700002BE14EE562E170E08CE090E00E940D0963
:102710008EE090E09093B9018093B80186E190E05B
:102720009093B7018093B6018AE591E00E94D60AA2
:1027300080E290E09093B9018093B80182E290E04A
:102740009093B7018093B6018AE691E00E94D60A81
:102750000E94D70988E00E94CC09811105C084E05D
:102760000E94CC098823B1F381E08093F6015CC01C
:10277000109281010DE0109181011430C8F5E12F14
:10278000F0E0DF01A454BE4F8C9180937F01813033
:1027900031F08E3021F08B3111F0883201F5E454A4
:1027A000FE4F9DE0915049F021E0280F84812817C9
:1027B00011F0348284E63496F5CF00938001809343
:1027C0007F010E94DA086093F2017093F301809315
:1027D000F4019093F5011F5F10938101CCCF8EE03F
:1027E000815019F03C921496FBCF00938001F3CFF7
:1027F00085E08093F601E2E8F1E080E081938F5F6D
:102800008433E1F71092810180917F012091800152
:10281000ECEBF1E095E0915061F42093800194E0BD
:102820009093810180937F010E941F0A0E94D70923
:10283000E6CBDF018D918D01813031F08E3021F0BA
:102840008B3111F08832A9F430E020E0682F70E07D
:102850004081433639F0AB01420F531F4E575E4F54
:10286000DA013C922F5F3F4F34962D30310581F7CE
:102870002DE0F801D0CF0E94DA08AB01BC018091B5
:10288000F2019091F301A091F401B091F50180550E
:102890009B4FAF4FBF4F84179507A607B70720F68A
:1028A0000E94F50A0E94AF0A1092F00180E021E038
:1028B000280FB4E08B9FF0011124E454FE4F908167
:1028C000923619F08093F1012ACE822FF0CF8091B9
:1028D000F101E091F001F0E004E0809FC0011124DB
:1028E000DC01A454BE4FAE0FBF1F2C9120937F017B
:1028F000213031F02E3021F02B3111F02832A9F4A3
:1029000030E084549E4FE80FF91FA32FB0E0A45489
:10291000BE4F8C91823619F42C93808335E03F5F53
:10292000343098F33093810159CE10E0822F8150DA
:10293000990BAC0130E0832F90E0612F70E0FC0137
:10294000EE0FFF1FEE0FFF1FE454FE4FE60FF71FC1
:10295000E081E417150681F4FC01EE0FFF1FEE0F76
:10296000FF1FE054FE4FE60FF71F8081823621F4EF
:1029700020838C9314E03DE03F5F3C30E0F21F5F2A
:102980001430C0F2309380011093810127CE8F92D2
:102990009F92AF92BF92CF92DF92EF92FF92CF932E
:1029A000DF93EC01688179818A819B8161157105D2
:1029B0008105910521F464E279ED8BE597E02DE145
:1029C00033EF41E050E00E94811549015A019B011B
:1029D000AC01A7EAB1E40E94A0156B017C01ACEE4A
:1029E000B4EFA50194010E94AE15C60ED71EE81ED5
:1029F000F91EF7FE06C081E0C81AD108E10880E898
:102A0000F80AC882D982EA82FB82C701B6019F77A1
:102A1000DF91CF91FF90EF90DF90CF90BF90AF907C
:102A20009F908F9008958F929F92AF92BF92CF9276
:102A3000DF92EF92FF9260910D0170910E018091F3
:102A40000F0190911001611571058105910521F427
:102A500064E279ED8BE597E02DE133EF41E050E062
:102A60000E94811549015A019B01AC01A7EAB1E41A
:102A70000E94A0156B017C01ACEEB4EFA50194019E
:102A80000E94AE15C60ED71EE81EF91EF7FE06C040
:102A900081E0C81AD108E10880E8F80AC0920D0167
:102AA000D0920E01E0920F01F0921001C701B60121
:102AB0009F77FF90EF90DF90CF90BF90AF909F9067
:102AC0008F90089560930D0170930E0180930F0114
:102AD000909310010895F999FECF92BD81BDF89AA7
:102AE000992780B50895262FF999FECF1FBA92BD78
:102AF00081BD20BD0FB6F894FA9AF99A0FBE0196DF
:102B00000895052E97FB1EF400940E94981557FD1A
:102B100007D00E94B31507FC03D04EF40C9498150F
:102B200050954095309521953F4F4F4F5F4F0895F9
:102B300090958095709561957F4F8F4F9F4F089529
:102B40000E94D515A59F900DB49F900DA49F800D58
:102B5000911D11240895B7FF0C94A0150E94A01593
:102B6000821B930B0895A1E21A2EAA1BBB1BFD0129
:102B70000DC0AA1FBB1FEE1FFF1FA217B307E4075C
:102B8000F50720F0A21BB30BE40BF50B661F771FB4
:102B9000881F991F1A9469F7609570958095909594
:102BA0009B01AC01BD01CF010895A29FB001B39F6D
:102BB000C001A39F700D811D1124911DB29F700D46
:102BC000811D1124911D0895991B79E004C0991F5E
:102BD000961708F0961B881F7A95C9F78095089577
:102BE000AA1BBB1B51E107C0AA1FBB1FA617B70733
:102BF00010F0A61BB70B881F991F5A95A9F780954F
:102C00009095BC01CD010895EE0FFF1F0590F49142
:082C1000E02D0994F894FFCFB8
:102C180010FFFFFFFF00E1000000000000010000BE
:102C28000000C1808100000000000000BD065508BA
:102C3800DE06D3062407E206000700000000570955
:102C4800D007D30AD20A0D0A00413A506C617900C4
:102C580067616D6500423A436F6465004672616E54
:102C68006B0076616E0056656E00436F6E67726129
:102C780074756C6174696F6E73004E657720676157
:042C88006D653F0037
:00000001FF
