:100000000C94A6050C94CE050C94CE050C94CE054C
:100010000C94CE050C94CE050C94CE050C94CE0514
:100020000C94CE050C94CE050C94420B0C94B10BA1
:100030000C94CE050C94CE050C94CE050C94CE05F4
:100040000C94CE050C94CE050C94CE050C94CE05E4
:100050000C94CE050C94CE050C94CE050C94E30DB7
:100060000C94CE050C94CE050C94CE050C94CE05C4
:100070000C94CE050C94CE050C94CE050C94CE05B4
:100080000C94CE050C94CE050C94CE050C94CE05A4
:100090000C94CE050C94CE050C94CE050C94CE0594
:1000A0000C94CE050C94CE050C94CE0500000000F7
:1000B000003E5B4F5B3E3E6B4F6B3E1C3E7C3E1CEE
:1000C000183C7E3C181C577D571C1C5E7F5E1C0034
:1000D000183C1800FFE7C3E7FF0018241800FFE7EB
:1000E000DBE7FF30483A060E2629792926407F05AE
:1000F0000507407F05253F5A3CE73C5A7F3E1C1CC4
:1001000008081C1C3E7F14227F22145F5F005F5F83
:1001100006097F017F006689956A6060606060946F
:10012000A2FFA29408047E040810207E2010080874
:100130002A1C08081C2A08081E101010100C1E0C7F
:100140001E0C30383E3830060E3E0E060000000011
:100150000000005F00000007000700147F147F14F8
:10016000242A7F2A1223130864623649562050003D
:1001700008070300001C2241000041221C002A1C29
:100180007F1C2A08083E0808008070300008080814
:100190000808000060600020100804023E51494534
:1001A0003E00427F400072494949462141494D3352
:1001B0001814127F1027454545393C4A49493141B9
:1001C000211109073649494936464949291E000087
:1001D00014000000403400000008142241141414DC
:1001E0001414004122140802015909063E415D59C8
:1001F0004E7C1211127C7F494949363E41414122D1
:100200007F4141413E7F494949417F090909013EFA
:10021000414151737F0808087F00417F4100204021
:10022000413F017F081422417F404040407F021C33
:10023000027F7F0408107F3E4141413E7F0909094A
:10024000063E4151215E7F09192946264949493216
:1002500003017F01033F4040403F1F2040201F3FDC
:100260004038403F63140814630304780403615961
:10027000494D43007F4141410204081020004141A3
:10028000417F04020102044040404040000307084F
:100290000020545478407F2844443838444444284B
:1002A000384444287F385454541800087E090218F2
:1002B000A4A49C787F0804047800447D400020407A
:1002C000403D007F1028440000417F40007C0478BE
:1002D00004787C080404783844444438FC18242406
:1002E0001818242418FC7C08040408485454542486
:1002F00004043F44243C4040207C1C2040201C3C03
:100300004030403C44281028444C9090907C4464F9
:10031000544C44000836410000007700000041368C
:10032000080002010204023C2623263C1EA1A16112
:10033000123A4040207A3854545559215555794144
:100340002154547841215554784020545579400C1B
:100350001E527212395555555939545454593955FC
:100360005454580000457C410002457D420001453F
:100370007C40F0292429F0F0282528F07C545545AC
:10038000002054547C547C0A097F4932494949323F
:100390003248484832324A4848303A4141217A3A54
:1003A00042402078009DA0A07D39444444393D401E
:1003B00040403D3C24FF2424487E4943662B2FFCCB
:1003C0002F2BFF0929F620C0887E09032054547979
:1003D000410000447D413048484A32384040227A4A
:1003E000007A0A0A727D0D19317D2629292F2826C7
:1003F0002929292630484D402038080808080808CF
:100400000808382F10C8ACBA2F102834FA00007B27
:10041000000008142A142222142A1408950022002D
:1004200095AA005500AAAA55AA55AA000000FF00E7
:10043000101010FF00141414FF001010FF00FF1024
:1004400010F010F0141414FC001414F700FF000056
:10045000FF00FF1414F404FC141417101F10101FD5
:10046000101F1414141F00101010F0000000001FC3
:10047000101010101F10101010F010000000FF10CE
:100480001010101010101010FF10000000FF1400CA
:1004900000FF00FF00001F10170000FC04F41414FC
:1004A0001710171414F404F40000FF00F7141414C8
:1004B00014141414F700F7141414171410101F1048
:1004C0001F141414F4141010F010F000001F101F6B
:1004D0000000001F14000000FC140000F010F010D9
:1004E00010FF10FF141414FF141010101F00000050
:1004F00000F010FFFFFFFFFFF0F0F0F0F0FFFFFF54
:100500000000000000FFFF0F0F0F0F0F38444438AA
:10051000447C2A2A3E147E02020606027E027E02E5
:1005200063554941633844443C04407E201E200604
:10053000027E020299A5E7A5991C2A492A1C4C7241
:1005400001724C304A4D4D303048784830BC625AC8
:10055000463D3E494949007E0101017E2A2A2A2A58
:100560002A44445F444440514A444040444A514034
:100570000000FF0103E080FF000008086B6B0836F5
:1005800012362436060F090F060000181800000066
:100590001010003040FF0101001F01011E00191D55
:1005A0001712003C3C3C3C0000000000F0F89C8E20
:1005B0008783878E9CF8F00000FEFF03030303038C
:1005C000070EFCF80000FEFF0303030303070EFC05
:1005D000F80000FFFF00000000000000FFFF000027
:1005E000FEFF8383838383C7EE7C380000F8FC0E14
:1005F00007030303070EFCF800003F7FE0C0808084
:10060000C0E07F3FFFFF01010101010101FFFF0089
:1006100000FFFF0C0C0C0C1C3E77E3C100007FFFB9
:10062000C0C0C0C0C0E0703F1F00001F3F70E0C0EE
:10063000C0C0E0703F1F00007FFFC1C1C1C1C1E366
:10064000773E1C00001F3F70E0C0C0C0E0703F1F3D
:10065000000000000001FFFF01000000D5F08D1434
:10066000A1C881CFD9F1AF20007F3F2294AA9295F3
:1006700094446942C252AA2A559552459426244C64
:10068000A5AA52552949942624543A9D9444694276
:100690004255AA2A55952A4594262494AA2A559566
:1006A00054446942C274BA949A2B4D48285555AAAD
:1006B0002A2589D284844A56A5AA5292284D4828D0
:1006C000A9A44AA5646942E2542A95724C6942423F
:1006D000E77AD52BC794262494325BB9544491AD64
:1006E0003B573BA96AD7B92CA35D77AE7652D5AEFE
:1006F000735946BBEE5CEDA4AA5DE7B28C76DDB91A
:10070000DA4955BBCE6519EDBA73B593AA769DCB80
:1007100032DA75E76A2755ED3A9765B4EBCED54ED8
:10072000AADA752ECB68D79DAB9D54B5EB5C96D1FC
:10073000AE3B573BA96AD7B92CA35D77AE7652D5AD
:10074000AE735946BBEE5CEDA4AA5DE7B28C76DDD4
:10075000B9DA4955BBCE6519EDBA73B593AA769D42
:10076000CB2A42A92A59494994264CAA5B9DFA7F73
:10077000BBDDD54E2A5D59A94E7D55AAEAADB2B969
:100780009D73AEB6DBEDA94F7D2B599AD0A65BF5D4
:10079000555FF5E5F49AD0A6DB5EF5553BA7B78C1F
:1007A00036DDB9CE75293593528CA7B66E7BD557F9
:1007B000BDD55B469B6E75577DD55B9F65B4E9B62D
:1007C000BAEDA9D796D1A6634AA5522947B465B414
:1007D000E97675AB5BED98D2848452662B978A28B4
:1007E000B275AF7AA5EE5EF52ACB68D784DE6F9D31
:1007F000D3F9B47356D9A4522EA966E3E77BD53654
:1008000026B9DD26D536D75BE9AC92CE11A6753A6E
:100810009D3EBBDD2AA9D35B2509D34BDEB6DBD4D5
:1008200036C25ED5EA5697BB5CAF5AA7B74A12A646
:10083000753A9D3EBBDD2AA9D35B257DACBDAAD50B
:10084000AD2E77B95EB5CE2AABAC9ED5AE7BD52B9F
:1008500075F7AA5759452855252B2989D2844B75F8
:100860003AFB56A7731D535A49A9ECCE451853BA03
:10087000ED76BBD5E95EC5E89C54D249FBB9EC4A9C
:100880002E95738AB9ED76BBD5D1B6DD6EB73A66D3
:10089000A9EC562AFB3FA35476BBB5DB6DCA6EB7F5
:1008A0005B1D5DDBED76ABA36DBBDD6E758C52D948
:1008B000EDD66EB729BBDD6E75D48452662B978A50
:1008C00028B2B57352B55A2AE7B28C76ED9C54AD76
:1008D00096CAB92CA35D3B2755ABA5722ECB68D722
:1008E000CE49D56AA99CCB32DAB57352B55A2AE7FC
:1008F000B28C76ED9C54AD96CAB92CA35D3B2755BE
:10090000ABA5722ECB68D7CE49D56AA99CCB32DA7B
:10091000B57352B55A2AE7B28C76ED9C54AD96CA9F
:10092000B92CA35D3B2755ABA5722ECB68D7CE491A
:10093000D56AA99CCB32DAB57352B55A2AE7B28A86
:1009400050AA4A565212A509094BA9AA54554A154C
:10095000519A903095AA4A55A524519A9050E9741D
:100960005212A5090955A9AA5455AA14519A905092
:10097000AAAA54555211A50909D3E9526AAE3421E5
:10098000A15455A9AA94244A13122A5995AA4A494E
:10099000A23421A1A4922A9592A5098953A954CAE7
:1009A00031A509099DEB55AF1C539A9050CA6CE5CF
:1009B000521145B6EE5C29652FA53A9765B4EBCE8A
:1009C0009552F652AA735946BBEE5C29652FA53A9B
:1009D0009765B4EBCE9552F652AA735946BBEE5CBE
:1009E00029652FA53A9765B4EBCE9552F652AA73B6
:1009F0005946BBEE5C29652FA53A9765B4EBCE95B9
:100A000052F652AA735946BBEE5C29652FA53A9758
:100A100065B4EBCE9552F652AA735946BBEE5C29EB
:100A2000652FA53A9765B4EBCE9552F652AA735945
:100A300046BBEE5C29652FA53A971D080B00020204
:100A40000200000904000001020200000524001059
:100A50000105240101010424020605240600010702
:100A600005810310004009040100020A000000078C
:100A7000050202400000070583024000000403094C
:100A80000412010002EF02014041233680000101FF
:100A900002030141726475696E6F204C4C43004142
:100AA000726475696E6F204C656F6E6172646F0061
:100AB0000808FEFF83EBEB83FFFEFEFF8BABABA3CF
:100AC000FFFEFEFFBBABAB83FFFEFEFFE3EFEF835A
:100AD000FFFEFEFFA3ABAB8BFFFEFEFF83ABAB8F36
:100AE000FFFEFEFFFBFB8BF3FFFEFEFF83ABAB8342
:100AF000FFFEFEFFE3ABAB83FFFEFEFF83FF83BB86
:100B000083FEFEFFFFBBBBC3FFFEFEFFC39B9BC379
:100B1000FFFEFEFF83EFD7BBFFFE3F7F7B7970793F
:100B20007B3F3F7F73736C73733F3F7F787063705D
:100B3000783F3F7F7B7160717B3FFEFFFFFFFFFFD0
:100B4000FFFE3F7F7F7F7F7F7F3F600E11241FBEB0
:100B5000CFEFDAE0DEBFCDBF11E0A0E0B1E0EAED1B
:100B6000F1E302C005900D92A43BB107D9F726E04E
:100B7000A4EBB1E001C01D92A53AB207E1F715E080
:100B8000C6EAD5E004C02197FE010E94E518C53AE7
:100B9000D107C9F70E947D0E0C94EB180C9400004D
:100BA000E1E5F2E0A0E0B8E000800EBC8111012C8C
:100BB0001197A0FDFDCF0192B9F70DB40895EF9202
:100BC000FF920F931F93CF93DF93DC01E0EBFAE0EA
:100BD0009491E1EBFAE02491092F10E0C2EBDAE006
:100BE0004423E1F0C1E0D0E0822F877011F4D0E01F
:100BF000C0E0E22FE695E695E695EC0FFD2FF11D9E
:100C0000E09F7001E19FF00CF09FF00C11244E9DCD
:100C1000E0014F9DD00D1124CE54D54FA8014A0FAD
:100C20005B1F4115510509F452C0A038B1050CF005
:100C30004EC0FB01E20FF11DEF2B09F448C06034F8
:100C400071050CF044C0209709F441C033E075955C
:100C500067953A95E1F74038510514F090E89A1BF2
:100C600031E0822F877009F430E02695269526958D
:100C7000230FAB01420F511D4930510514F028E0FC
:100C8000261B362FAB015695542F44275795479571
:100C90004A0F5B1F4F5A5D4F832F861B8217B8F494
:100CA000B0E0A0E0A91768F4FE01EA0FFB1F8491F1
:100CB00037FD05C07A01EA0EFB1EF701808311960D
:100CC000F1CFC00FD11F40585F4F3F5FE5CFDF919D
:100CD000CF911F910F91FF90EF900895FC018091AB
:100CE0005002882311F13FB7F89482E08093E90025
:100CF0002091F200822F90E01816190614F481E07A
:100D000090E0882339F0289844E640934F024091C0
:100D1000F1004083222339F02091F200211103C019
:100D20002BE62093E8003FBF08958FEF9FEF0895D3
:100D30002FB7F89483E08093E9009091E800892F21
:100D4000807295FF04C09091F20080E4891B2FBF50
:100D500008958091470281110DC082E08093430283
:100D600084E080934402109246021092450281E092
:100D70008093470283E492E00895CF93DF931F921C
:100D8000CDB7DEB76983DC01ED91FC910280F38180
:100D9000E02D41E050E0BE016F5F7F4F09950F905D
:100DA000DF91CF91089583E08093E9008091F20074
:100DB000882319F08AE38093E80008950E9498063A
:100DC00090E00895CF93DF931F92CDB7DEB7FC017B
:100DD0008485958597FD08C02FEF3FEF35872487E1
:100DE0000F90DF91CF910895CE0101960E946E067B
:100DF000019719F4898190E0F3CF8FEF9FEFF0CF47
:100E00000F931F93CF93DF931F92CDB7DEB78C0163
:100E1000FC018485958597FF0BC0CE0101960E9449
:100E20006E06019771F4898190E0F80195878487B7
:100E3000F801848595850F90DF91CF911F910F91D7
:100E400008958FEF9FEFF1CFFC018485958597FD85
:100E50000BC09FB7F89482E08093E9008091F20084
:100E60009FBF90E0019608959FB7F89482E0809329
:100E7000E9008091F2009FBF90E0089540913D020B
:100E800050913E0220913B0230913C0242175307A1
:100E9000B4F49091E8009570E1F39091E80092FD30
:100EA00019C08093F10080913D0290913E0201961D
:100EB0008F739927892B19F48EEF8093E800809126
:100EC0003D0290913E02019690933E0280933D0236
:100ED00081E0089580E00895DF92EF92FF920F93F2
:100EE0001F93CF93DF93D82E8A01EB017B01E40E91
:100EF000F51ECE15DF0559F0D7FE12C0FE01849114
:100F00000E943E0721968111F4CF0FEF1FEFC80119
:100F1000DF91CF911F910F91FF90EF90DF90089597
:100F20008881EECF0F931F93CF93DF931F92CDB79E
:100F3000DEB782E0898342E450E06BE37AE080E848
:100F40000E946C070E94A906DC0112960D911C916B
:100F50000115110589F0D801ED91FC910280F38112
:100F6000E02DBE016F5F7F4FC801099597FD04C05A
:100F7000F80100851185ECCF89810F90DF91CF9129
:100F80001F910F910895615030F02091F100FC0104
:100F900020830196F8CF289884E680934F02089525
:100FA000AF92BF92CF92DF92EF92FF920F931F9377
:100FB000CF93DF936C017B018B01040F151FEB01B5
:100FC0005E01AE18BF08C017D10759F06991D6016C
:100FD000ED91FC910190F081E02DC6010995892BDE
:100FE00079F7C501DF91CF911F910F91FF90EF909D
:100FF000DF90CF90BF90AF9008953FB7F894809165
:10100000B9019091BA01A091BB01B091BC0126B584
:10101000A89B05C02F3F19F00196A11DB11D3FBF30
:10102000BA2FA92F982F8827BC01CD01620F711DFF
:10103000811D911D42E0660F771F881F991F4A95F9
:10104000D1F708958F929F92AF92BF92CF92DF9285
:10105000EF92FF926B017C010E94FD074B015C0146
:10106000C114D104E104F104B9F00E94FD0768192C
:1010700079098A099B09683E73408105910580F3CF
:1010800021E0C21AD108E108F10888EE880E83E059
:10109000981EA11CB11CE4CFFF90EF90DF90CF9081
:1010A000BF90AF909F908F9008958F929F92AF9234
:1010B000BF92CF92DF92EF92FF920F931F93CF9345
:1010C000DF936C017B018A0180910F01882309F471
:1010D0005CC080915002882309F457C0809142027D
:1010E00080FF05C08091E00082608093E000E8010D
:1010F000B12C8AEFA82E93E0892E2AE3922E209716
:1011000011F4BB20D9F10E94980681110AC0AA945B
:10111000AA20D9F161E070E080E090E00E9422080E
:10112000EECF8C171D0611F00CF08C2F9FB7F894A2
:101130008092E9002091E80025FD02C09FBFDFCF2B
:10114000282F30E0C21BD30BF701815020F04191D2
:101150004093F100FACFE20EF31EBB2021F09092F3
:10116000E800B12CEBCF8091E80085FDE7CF9092AD
:10117000E800BB24B394209709F3F3CF5D9884E68D
:1011800080934102101611063CF081E090E0F601D8
:101190009383828310E000E0C801DF91CF911F911B
:1011A0000F91FF90EF90DF90CF90BF90AF909F9006
:1011B0008F9008952FB7F8946091B5017091B601A2
:1011C0008091B7019091B8012FBF08952D9A08958D
:1011D000BC0190E080E00C9422088FB18095807F64
:1011E000669B88601C9B8460089520E191E061FD0E
:1011F00094E060FD990F62FD9295687F269FD00173
:101200001124A80FAF5ABD4F8C9140FF03C0892B0A
:101210008C93089590958923FBCFAF92BF92CF9284
:10122000DF92EF92FF920F931F93CF93DF935B01B7
:10123000EC016C01C40ED11C8B01020F111DCC15E9
:10124000DD05ACF47501C8010134110514F080E42A
:1012500090E0E816F9064CF440E0B701CE010E9498
:10126000F5088FEFE81AF80AEECF2196E8CFDF9164
:10127000CF911F910F91FF90EF90DF90CF90BF9093
:10128000AF90089580E0E1E5F2E081118FEF002456
:1012900081938193819381930394D1F71092F70105
:1012A0001092F6011092F9011092F80108958F92B0
:1012B0009F92AF92BF92CF92DF92EF92FF920F93E5
:1012C0001F93CF93DF936D3089F0C090F601D090DB
:1012D000F7016A30D1F41092F9011092F80188E018
:1012E000C80ED11CD092F701C092F60181E090E0C7
:1012F000DF91CF911F910F91FF90EF90DF90CF90F2
:10130000BF90AF909F908F9008950091F801109139
:10131000F901E5E06E9FE0011124C455DF4F58014B
:10132000F12CF5E0E12CFF1629F0CE010196FE012B
:10133000E490EC01912C812CF0E8AF16B10458F444
:10134000B601680D791D6034710528F44E2D417089
:10135000C5010E94F508E6948FEF881A980AE8E024
:101360008E16910449F7F394FFEFAF1ABF0A86E097
:10137000F812D7CF0A5F1F4F1093F9010093F801BD
:10138000B5CF9091FA01982329F49091FB0198230D
:1013900081E009F480E00895CF93C82F0E94ED0802
:1013A000982F9C2381E09C1380E0CF91089580E0EA
:1013B0000C94D0051F93CF93DF93DC0130E020E045
:1013C00050E040E011E0C1E0D0E02617370791F18E
:1013D00014968C911497811115C014961C93149730
:1013E00012968D919C911397ED91FC911197E80FB6
:1013F000F91FE4911596EC931597019613969C931B
:101400008E93129714969C91149715968C9115971C
:10141000892349F0FE01022E02C0EE0FFF1F0A943D
:10142000E2F74E2B5F2B990F14969C9314972F5F26
:101430003F4FCBCFCA01DF91CF911F9108955F92AB
:101440006F927F928F929F92AF92BF92CF92DF92D4
:10145000EF92FF920F931F93CF93DF931092C101EE
:101460009AE0992E2DE0822ED091C101D43008F05F
:1014700066C01092C001ED2EF12C870184E0000FB0
:10148000111F8A95E1F7680188E0C80ED11CC09150
:10149000C001CD3008F04FC084E0C89FF001112496
:1014A000E350FE4FEE0DFF1D808160903202709080
:1014B00031029EE9980F9230D0F0C61106C0D711C4
:1014C00004C090913802911112C0C99D500111249D
:1014D000682D0E94C518582E492FB801C5010E94D9
:1014E000DF054DE0450DB601C5010E94DF0584E032
:1014F000689EF0011124E350FE4FE70DF11D80813D
:101500008236A9F4C61113C0D71111C080913802D8
:10151000882369F0C99D5001112441E1B801C5013A
:101520000E94DF0542E1B601C5010E94DF05CF5FE1
:10153000C093C001ACCFDF5FD093C10195CFDF91E5
:10154000CF911F910F91FF90EF90DF90CF90BF90C0
:10155000AF909F908F907F906F905F900895409193
:10156000C0018DEF91E035E020E03150A9F0FC01A1
:101570004EE0415071F05081533649F4A22FB0E053
:10158000AE53BE4F5C912F5F5336C1F350833496F8
:10159000F0CF01964DE0E9CF4093C00184E0809305
:1015A000C1010895089590E080E00895CF93DF93FE
:1015B000FC0101900020E9F73197AF01481B590B5E
:1015C000BC0181EA96E00E94D007EC0142E050E0C5
:1015D00069E371E081EA96E00E94D0078C0F9D1FBD
:1015E000DF91CF9108950C944C188F929F92AF92F7
:1015F000BF92CF92DF92EF92FF92CF93DF93C2EC34
:10160000D1E0C12CD12C760183E3882E912CA12C22
:10161000B12C83E3C816D104E104F10471F10E94F6
:10162000F417A50194012C193D094E095F090E9488
:101630006218DC01CB018C0D9D1DAE1DBF1D2881E4
:10164000E82FF0E0EE53FE4F8081899320838FEFE7
:10165000C81AD80AE80AF80A84E3C816D104E104D3
:10166000F104B9F6DF91CF91FF90EF90DF90CF902A
:10167000BF90AF909F908F90089583E390E0A0E09B
:10168000B0E0DDCF1F920F920FB60F9211248F930F
:101690009F938091E1009091E100937F9093E1000E
:1016A00083FF0FC01092E90091E09093EB0010923D
:1016B000EC0092E39093ED001092500298E090932A
:1016C000F00082FF22C093E09093E9009091F20035
:1016D000992319F09AE39093E8009091410299239D
:1016E00041F090914102915090934102911101C0BB
:1016F0005D9A90914F02992341F090914F02915041
:1017000090934F02911101C0289A84FF18C08091D4
:10171000E2008E7E81608093E2008091E1008F7E06
:101720008093E100809142028E7E8061809342022C
:101730009F918F910F900FBE0F901F90189580FF73
:10174000F7CF8091E2008E7E80618093E2008091ED
:10175000E1008E7E8093E100809142028E7E816066
:10176000E5CF1F920F920FB60F921124CF92DF9206
:10177000EF92FF920F931F932F933F934F935F939B
:101780006F937F938F939F93AF93BF93EF93FF9349
:10179000CF93DF93CDB7DEB76C97DEBFCDBF10928E
:1017A000E9008091E80083FF25C068E0CE014596FE
:1017B0000E94C30782EF8093E8008D8987FF39C0BC
:1017C0009091E80090FFFCCF982F907609F034C1FB
:1017D0009E894F89588D2F89F88C911131C080389E
:1017E00061F5809140028093F1001092F1008EEF3C
:1017F0008093E8006C960FB6F894DEBF0FBECDBFA5
:10180000DF91CF91FF91EF91BF91AF919F918F9118
:101810007F916F915F914F913F912F911F910F9108
:10182000FF90EF90DF90CF900F900FBE0F901F9022
:1018300018959EEF9093E800C7CF1092F100D5CF96
:10184000913059F48111D3CF4130510581F6809107
:1018500040028D7F80934002CACF933049F48111BA
:10186000C6CF4130510519F6809140028260F2CF17
:10187000953041F48091E80080FFFCCF20682093F0
:10188000E300B5CF963009F0A9C00B8D1C8D22E086
:101890001092E90010923E0210923D02F2122EC008
:1018A00010923C0210923B020E9492071F8299E024
:1018B0009983FA8291E09E8390EA98879AEF9987BC
:1018C00020913D0230913E02275F3F4F3C832B83A6
:1018D0008D831092E90010923E0210923D02109307
:1018E0003C0200933B0249E050E0BE016F5F7F4F36
:1018F00080E00E946C070E94920779CF10933C020F
:1019000000933B020E94A906DC0112960D911C91E6
:101910000115110509F451C1D801ED91FC91048024
:10192000F581E02DBE016B5E7F4FC80109950097E0
:1019300009F03EC1F80100851185EACFF3E0FF12FE
:101940000EC08F89882309F440C0823061F440E8DA
:1019500060E18FE99AE00E942D0E811148CF81E26B
:101960008093EB0047CF813029F440E86BE083E9B6
:101970009AE0F1CF833099F70E94A906DC01129614
:10198000ED90FC908E010F5F1F4F6801E114F10490
:1019900079F0D701ED91FC910680F781E02DB80137
:1019A000C7010995080F111DF701E084F184EECFFE
:1019B000D8011C92F60101900020E9F73197BF0190
:1019C0006C197D0940E0C601C6CF6DE77AE0FB01E6
:1019D000449150E080E80E946C0709CF973009F4E9
:1019E000BECF983021F481E08093F10000CF993090
:1019F00009F0FDCE837009F0B2CFE5E1F1E081E0BE
:101A000031E096E32191222371F08093E900309335
:101A1000EB00DF0111972C912093EC009093ED00E7
:101A20008F5F873079F78EE78093EA001092EA00A3
:101A30008F8980935002DBCE8B8D9C8D1092E900B4
:101A400010923E0210923D0290933C0280933B0222
:101A5000898D811192C08E899D89913A49F4813294
:101A600009F07DCF47E050E068E071E080E0B3CF5F
:101A7000913209F074CF833269F48F89988DB0E088
:101A8000A0E08093040190930501A0930601B09318
:101A90000701ADCE803269F48091E80082FFFCCF6F
:101AA00067E088E091E00E94C3078BEF8093E80035
:101AB0009ECE823209F09BCE8F8980930F01EEEF8C
:101AC000FFE7859194918B3F9C4D51F1E0E0F8E068
:101AD0008091080190910901A0910A01B0910B0138
:101AE000803B9440A105B105F1F480910F0180FD88
:101AF0001AC0EE3F8AE0F80789F587E797E79183F8
:101B000080838091600080933F0288E19BE00FB664
:101B1000F894A895809360000FBE9093600067CE04
:101B2000EEEFFAE0D5CF808191818737974709F0B2
:101B30005ECEA8958091600088618093600080915E
:101B40003F0280936000EE3F2AE0F20789F0809127
:101B5000FE0A9091FF0A9183808349CE8081918112
:101B60008737980751F29093FF0A8093FE0AC5CFFA
:101B70001092FF0A1092FE0A3ACE0E94A906DC01DA
:101B800012960D911C910115110509F4E8CED801AA
:101B9000ED91FC910190F081E02DBE016B5E7F4FD5
:101BA000C8010995811123CEF80100851185EBCF7D
:101BB000181619060CF41BCED2CEF1E0FF12BECEE1
:101BC00061E87AE004CF1F920F920FB60F921124B2
:101BD0002F933F938F939F93AF93BF938091B501C2
:101BE0009091B601A091B701B091B8013091B401C4
:101BF00023E0230F2D3758F50196A11DB11D209329
:101C0000B4018093B5019093B601A093B701B0934E
:101C1000B8018091B9019091BA01A091BB01B09136
:101C2000BC010196A11DB11D8093B9019093BA0129
:101C3000A093BB01B093BC01BF91AF919F918F91D5
:101C40003F912F910F900FBE0F901F90189526E88F
:101C5000230F0296A11DB11DD2CFEF92FF920F93D9
:101C60001F93CF93DF93F82E192FE62E042F81E0D8
:101C7000860F880F0E943E0783E00E943E07CF2D0B
:101C8000D12FEC0EFD2EF11CCE15DF05B9F007FFAC
:101C900013C0FE0184910E943E07182F80E00E942D
:101CA0003E07812321968111EFCFDF91CF911F91C4
:101CB0000F91FF90EF9008958881EDCF81E0F5CFEF
:101CC000E1E5F6E01382128288EE93E0A0E0B0E056
:101CD00084839583A683B7838FE191E0918380838A
:101CE0008FEF9FEF95878487E1EAF6E013821282F7
:101CF00081E391E0918380830895CF93DF93CDB703
:101D0000DEB72A970FB6F894DEBF0FBECDBF78942A
:101D100084B5826084BD84B5816084BD85B58260F0
:101D200085BD85B5816085BD80916E0081608093A1
:101D30006E0010928100809181008260809381000A
:101D4000809181008160809381008091800081601A
:101D500080938000809191008260809391008091B7
:101D600091008160809391008091900081608093C8
:101D700090008091C10084608093C1008091C10077
:101D800082608093C1008091C10081608093C10016
:101D90008091C30081608093C3008091C000826005
:101DA0008093C0008091C20081608093C2008091C6
:101DB0007A00846080937A0080917A0082608093B8
:101DC0007A0080917A00816080937A0080917A0015
:101DD000806880937A001092500210924002109214
:101DE00042028091D70081608093D70080EA80937F
:101DF000D80089B5806189BD89B5826089BD09B483
:101E000000FEFDCF61E070E080E090E00E942208DB
:101E10008091D8008F7C80618093D8008091E00011
:101E2000807F8093E0008091E1008E7E8093E100CE
:101E30008DE08093E200559A209A81EC80937C009B
:101E400085B1806F85B984B1877E84B984B1876E8E
:101E500084B95E9A5F988AB1806D8AB9769A6E98D5
:101E600081B3806F81BB899880B38D7080BB80E522
:101E70008CBD81E08DBD85E090E00E94E8085F9A0E
:101E800085E090E00E94E8085E985C98ECE5F6E05A
:101E900084918EBD00000DB407FEFDCF319606E0A3
:101EA000E936F007A9F75C9A81E880936400809195
:101EB00065008160809365000E94D70980E80E94D8
:101EC000CC098823A9F05C9885EA8EBD00000DB48A
:101ED00007FEFDCF5C9A2E982F982D988091640074
:101EE00080628093640081E083BF889513BEFCCF3D
:101EF00084E00E94CC09882309F448C02D9884E826
:101F00000E94CC098823E1F00E94E60888EC90E06A
:101F10000E94E8082F9882E090E00E944C188F3FC2
:101F200029F06FEF82E090E00E94541884EF91E076
:101F30000E94E8082F9A84E80E94CC098111FBCF07
:101F400084E10E94CC098823E1F00E94E60888EC35
:101F500090E00E94E8082E9882E090E00E944C18E1
:101F6000882329F060E082E090E00E94541884EF1A
:101F700091E00E94E8082E9A84E10E94CC09811128
:101F8000FBCF88EC90E00E94E808B2CF0E94E60800
:101F900082E090E00E94F30A8823C1F13E9A3F9AC2
:101FA00081E090E00E94F30A182F1470512E81FFF7
:101FB00010C011112E9801EF1FEF68E0A62EB12C72
:101FC00080E40E94CC09882321F12E9A2F9A0E9446
:101FD000E60882E390E00E94E8080E94ED08811183
:101FE000F8CF81E280930001AAE05A2E0E94DA081D
:101FF0004090BD01442009F4D7C01092BD0180E09B
:1020000090E0892B99F30E940000F0CF3E983F9812
:10201000C7CF552029F00430110511F42E9A2F98BE
:1020200081E00E94D005980117FF04C022273327C2
:10203000201B310B27703327C80117FD079653E08B
:10204000959587955A95E1F717FF05C00197A5016A
:10205000421B530B9A01BC017695762F6627779524
:102060006795F12CE12C1501221A330A8E3F5FEFA0
:10207000950709F447C0A8E5AE9D4001AF9D900CBF
:102080001124DB01AF5ABD4F50E040E0F401E455AC
:10209000FA4F4F01FB01EF52FD4F3F018F3F980771
:1020A00081F0F401E40FF51FE491022E01C0EE0F60
:1020B0000A94EAF75496FC915497EF2B5496EC93BC
:1020C000549721153105C1F0F401E40FF51F449038
:1020D0006301C40ED51EE42DF0E0022C02C0F5957C
:1020E000E7950A94E2F7FA87E987F601F489FF8316
:1020F00049844F2AF601448A4F5F5F4F1196483555
:10210000510561F6019660587F4FEA94EF2809F077
:1021100047C00E94D7098FE090E00E94E8080F5F57
:102120001F4F0931110509F04BCF552011F02F9A9F
:102130002D9880E991E00E94E8080E94E60881E07D
:1021400090E00E94F30A80FF44CF8AE090E00E9472
:10215000F30A9FEF980F9E3F08F03BCF22E330E059
:102160003093F9012093F80128E330E03093F70130
:102170002093F6010BE010E0682F81EA96E00E94C0
:102180005709C8010E94F30A0F5F1F4F0131110563
:1021900099F70E94D70988EE93E00E94E80819CFCA
:1021A000EE24E394F12C62CF8091BE01062F081B30
:1021B000802F90910001091748F48F5F891708F06C
:1021C0001ECF81E083BF889513BE19CFFF24F394FF
:1021D000F092BD016093BE010091390210913A0264
:1021E0000F5F1F4F10933A02009339028091FB0159
:1021F0008093FA010E94ED088093FB01C8016AE018
:1022000070E00E94D118892B29F4809138028F2523
:10221000809338020E944209E0913702E93008F0C9
:102220003FC1F0E0EA5EFE4E0C94E5181F11551216
:10223000BA121113D51364149114071628170E94AB
:10224000420989E696E09A8389831C821B821D825B
:102250001E8268E070E0CE0101960E94DA090196C4
:102260005C0168E070E0CE0101960E94DA098C0101
:1022700061E070E0CE0101960E94DA091A141B0495
:102280000CF06BC00F5F1F4F101611060CF065C0ED
:102290006801F3E0D594C794FA95E1F70770112728
:1022A000012B19F01FEFC11AD10A782E612C44249A
:1022B000439410E000E0F12CE12C33243394EC142F
:1022C000FD040CF04AC088248394912C61E070E0F6
:1022D000CE0101960E94DA09892B21F422E0820EB8
:1022E000911CF4CFB401CE0101960E94DA09019647
:1022F00030E020E02817390770F571106428642D4C
:10230000660F31F5A7014F5F5F4F4930510580F4EB
:10231000003811056CF4F701F695FE2FEE27F795BE
:10232000E795E00FF11FEF5AFD4F7081672A608239
:102330000F5F1F4F442443940A151B052CF07A01AC
:102340004424439410E000E02F5F3F4F662ED2CF2D
:10235000462E662DF9CF7324B2CF0E94D7090E9472
:10236000DA086093330270933402809335029093BD
:1023700036026B017C0130EDC30E37E0D31EE11C49
:10238000F11C0E94DA086C157D058E059F05C8F3C7
:102390002CE04AE661E370E08BE090E00E940D09DA
:1023A0008DE090E09093F9018093F80103E310E051
:1023B0001093F7010093F6018CE391E00E94D60A96
:1023C00084E390E09093F9018093F8011093F70172
:1023D0000093F60183E491E00E94D60A80E590E044
:1023E0009093F9018093F8011093F7010093F6019F
:1023F00088E491E00E94D60A0E94D70936E1C32EF4
:10240000D12C4AE5E42EF12C88E00E94CC09811100
:1024100044C084E00E94CC098823B1F32AE04AE654
:1024200062E370E08BE090E00E940D09D092F90128
:10243000C092F8011093F7010093F6018FE491E048
:102440000E94D60A46E350E05093F9014093F80108
:102450001093F7010093F60185E591E00E94D60AFA
:102460008BE490E09093F9018093F8011093F701C9
:102470000093F6018CE491E00E94D60AF092F901F3
:10248000E092F8011093F7010093F60189E591E0DD
:102490000E94D60A0E94D709B7CF87E080933702FF
:1024A0000E941F0A0E94D709AACD809164008E7FE6
:1024B0008093640080917A00806480937A00809198
:1024C0007A0086FDFCCF00917800109179000E947F
:1024D000FD07AB01BC01C801B0E0A0E0DC01992719
:1024E00088278C019D01040F151F261F371FC90166
:1024F000B80120916400216020936400611571058A
:102500008105910511F00E944318E2ECF1E080E0B2
:1025100081938F5F8433E1F73091C0018DEF91E0BB
:1025200025E043E6215051F0FC013EE0315019F026
:1025300040833496FBCF01963DE0F4CF3093C00149
:1025400084E08093C101109232021092310283E044
:10255000809302010E94F50A0E94AF0A0E94DA08E5
:102560006093330270933402809335029093360265
:1025700082E094CF0E94DA08AB01BC018091330263
:1025800090913402A0913502B091360280559B4F54
:10259000AF4FBF4F84179507A607B70708F080CF46
:1025A0002091C0014DEF51E095E082E69150D1F0CD
:1025B000FA012EE0215091F03081311101C0808369
:1025C00030813D3009F4808330813A3109F48083D1
:1025D0003081373209F480833496ECCF4F5F5F4F00
:1025E0002DE0E4CF2093C00184E08093C1010E94DC
:1025F000AF0A809132022091310230E041E0480F71
:1026000014E0819FF0011124E350FE4FE20FF31F0D
:102610009081923621F08093320283E03FCF842F65
:10262000EDCF88E00E94C109882319F086E08093ED
:10263000370284E00E94C109882319F084E0809366
:10264000370280E80E94C109882339F08091310265
:10265000882319F081508093310280E10E94C109E2
:10266000882339F080913102833019F08F5F809395
:10267000310280E20E94C109882339F08091320240
:10268000882319F081508093320280E40E94C109AE
:10269000882339F0809132028C3019F08F5F80935B
:1026A00032021092C1018091BF019091C001EDEF03
:1026B000F1E035E020E03150C9F0DF018D9181304B
:1026C00031F08E3021F08B3111F0883269F490E0D6
:1026D000492F480F9D3039F05081541301C02F5FAE
:1026E0009F5F3496F5CF835FFD01E5CF9093C001E6
:1026F00094E09093C1018093BF01203309F0D0CEC4
:10270000109238020E941F0A0E94D7090E94DA081C
:1027100060933302709334028093350290933602B3
:102720006B017C0128E5C20E22E0D21EE11CF11CE7
:102730000E94DA086C157D058E059F05C8F32BE114
:102740004EE562E170E08CE090E00E940D098EE0C1
:1027500090E09093F9018093F80186E190E09093E6
:10276000F7018093F6018DE591E00E94D60A80E2A0
:1027700090E09093F9018093F80182E290E09093C9
:10278000F7018093F6018DE691E00E94D60A0E943F
:10279000D70988E00E94CC09811105C084E00E941D
:1027A000CC098823B1F381E079CE80910301813097
:1027B00049F480910201815080930201811102C08D
:1027C00088E06CCE1092C10103E68DE0F82E1091E6
:1027D000C1011430C8F5E12FF0E0DF01A350BE4F76
:1027E0008C918093BF01813031F08E3021F08B319C
:1027F00011F0883201F5E350FE4F9DE0915049F011
:1028000021E0280F8481281711F0048384E6349690
:10281000F5CFF092C0018093BF010E94DA08609367
:1028200033027093340280933502909336021F5F17
:102830001093C101CCCF8EE0815019F00C93149607
:10284000FBCFF092C001F3CF85E080933702E2EC3A
:10285000F1E080E081938F5F8433E1F71092C10152
:102860008091BF012091C001EDEFF1E095E013E60A
:10287000915041F42093C00194E09093C101809362
:10288000BF010ECEDF018D917D01813031F08E30A0
:1028900021F08B3111F08832A9F430E020E0682F6C
:1028A00070E04081433639F0AB01420F531F4E5365
:1028B0005E4FDA011C932F5F3F4F34962D30310568
:1028C00081F72DE0F701D4CF0E94DA08AB01BC01FB
:1028D0008091330290913402A0913502B09136027A
:1028E00080559B4FAF4FBF4F84179507A607B7077B
:1028F00008F0D6CD0E94F50A0E94AF0A109231026C
:1029000080E021E0280FB4E08B9FF0011124E35018
:10291000FE4F9081923619F0809332021FCE822FA3
:10292000F0CF40913202E09131026E2F70E0E4E08E
:102930004E9FA0011124FA01E350FE4FE60FF71F4E
:1029400020812093BF01213031F02E3021F02B3136
:1029500011F02832D1F480E091E043505E4FFA014B
:10296000E60FF71FA82FB0E0A350BE4F3C913236C0
:1029700021F42C93308390E085E08F5F843090F3D6
:102980008093C1019093FC0135C001E010E0422F1B
:102990004150550BBA0130E0832F90E0412F50E0B9
:1029A000DC01AA0FBB1FAA0FBB1FA350BE4FA40F71
:1029B000B51FAC91A617170689F4880F991F880FC9
:1029C000991F8F5F9D4FDC01A40FB51F8C9182363C
:1029D00029F42C93808300E014E03DE03F5F3C301D
:1029E000D8F21F5F1430B8F23093C0011093C101C8
:1029F0000093FC0183E0809337028091FC018130D9
:102A000009F04ECD80910101813009F049CD10923D
:102A100038020E94DA086093330270933402809384
:102A200035029093360218860E94DA08AB01BC0189
:102A30008091330290913402A0913502B091360218
:102A4000845D9E4FAF4FBF4F84179507A607B7070A
:102A500060F40E94DA08609333027093340280932A
:102A600035029093360251E045260E941F0A442009
:102A700009F4BAC05DEF252E51E0352E5101D50184
:102A80008D915D01823609F040C01092C101009124
:102A9000C1010430D0F5B1E0B093C001802E912C7B
:102AA000740144E0EE0CFF1C4A95E1F76701E8E091
:102AB000CE0ED11C1091C0011D3018F524E0129FDC
:102AC000F0011124E350FE4FE80DF91D80818130A3
:102AD00071F4159D3001112441E1B701C3010E9439
:102AE000DF0542E1B601C3010E94DF0506C08E305A
:102AF00081F38B3171F3883261F31F5F1093C00152
:102B0000D9CF0F5F0093C101C2CF41E052E04A1517
:102B10005B0509F0B4CF34E0A32E810151E05F835F
:102B2000D80114968C911497823609F04FC08C917D
:102B30008093BF018C3009F449C0893109F446C043
:102B4000863209F443C0833309F440C0DD24D394B2
:102B5000D80ED092BF011092C101B090C101B3E074
:102B6000BB15A0F11092C0018B2C912C340124E0F4
:102B7000660C771C2A95E1F7F3013896FA87E98706
:102B8000C090C001FCE0FC15E8F024E0C29EF0011A
:102B90001124E350FE4FE80DF91D8081D8120EC0BC
:102BA000C59C7001112441E1B301C7010E94DF05FA
:102BB00042E169857A85C7010E94DF05C394C0920E
:102BC000C001DECFB394B092C101C7CF3F813F5F58
:102BD0003F830C5F1F4F3D3009F0A2CFAA944FEF07
:102BE000241A340AA11099CF0E94D709088500231E
:102BF00041F088E00E94CC09811152CC11E0188785
:102C000013CF88E00E94CC0981110ECFF2CF0E9431
:102C100042091092C101B090C10123E02B1538F197
:102C20001092C00130E1B39E60011124760148E0AA
:102C3000E40EF11C9DE0992E9B0CA090C0015CE07D
:102C40005A1588F0A59C800111244A2DB601C801AF
:102C50000E94DF05492DB701C8010E94DF05A3943A
:102C6000A092C001EACFB394B092C101D4CF2BE1BE
:102C700048E662E170E08CE090E00E940D0983E19B
:102C800090E09093F9018093F80106E110E0109331
:102C9000F7010093F60187E791E00E94D60A8EE2E1
:102CA00090E09093F9018093F8011093F70100935D
:102CB000F6018CE791E00E94D60A8EE390E09093B3
:102CC000F9018093F8011093F7010093F6018FE763
:102CD00091E00E94D60A83E290E09093F9018093FC
:102CE000F80102E210E01093F7010093F60188E882
:102CF00091E00E94D60A8FE290E09093F9018093D0
:102D0000F8011093F7010093F6018BE891E00E941F
:102D1000D60A83E590E09093F9018093F80110932F
:102D2000F7010093F60182E991E00E94D60A0E9421
:102D3000D70988E00E94CC098111FBCF84E00E9472
:102D4000CC098111F6CF11E080910101823071F43C
:102D500088E00E94CC0981111093010184E00E9457
:102D6000CC09882389F310920101EECF2BE148E6CC
:102D700062E170E08CE090E00E940D0988E190E053
:102D80009093F9018093F80106E110E01093F701A8
:102D90000093F60185E991E00E94D60A85E490E06F
:102DA0009093F9018093F8011093F7010093F601D5
:102DB0008DE991E00E94D60A83E290E09093F901B8
:102DC0008093F80102E210E01093F7010093F601FE
:102DD00088E891E00E94D60A8FE290E09093F90192
:102DE0008093F8011093F7010093F6018BE891E0CE
:102DF0000E94D60A83E590E09093F9018093F80150
:102E00001093F7010093F60182E991E00E94D60A3F
:102E10000E94D70988E00E94CC098111FBCF84E091
:102E20000E94CC098111F6CF11E08091030182301C
:102E300009F0B9CC88E00E94CC09811110930301FC
:102E400084E00E94CC09882381F310920301EDCF26
:102E50000E9442091092C101B090C10183E08B151C
:102E600038F11092C00190E1B99E60011124760101
:102E7000A8E0EA0EF11C8DE0982E9B0CA090C001FA
:102E8000BCE0BA1588F0A59C800111244A2DB6013A
:102E9000C8010E94DF05492DB701C8010E94DF0566
:102EA000A394A092C001EACFB394B092C101D4CF51
:102EB0000E94D7090E94DA086093330270933402AB
:102EC00080933502909336026B017C01E8E5CE0ECB
:102ED000E2E0DE1EE11CF11C0E94DA086C157D05A3
:102EE0008E059F05C8F32BE148E662E170E08CE0B7
:102EF00090E00E940D0983E190E09093F9018093A6
:102F0000F80186E190E09093F7018093F60184EA5E
:102F100091E00E94D60A86E290E09093F9018093B6
:102F2000F80182E290E09093F7018093F6018DE63C
:102F300091E00E94D60A0E94D70988E00E94CC093D
:102F4000811131CC84E00E94CC098823B1F32BCCD1
:102F50008F929F92AF92BF92CF92DF92EF92FF92A9
:102F6000CF93DF93EC01688179818A819B81611520
:102F700071058105910521F464E279ED8BE597E017
:102F80002DE133EF41E050E00E94621849015A01FF
:102F90009B01AC01A7EAB1E40E9481186B017C019E
:102FA000ACEEB4EFA50194010E948F18C60ED71E97
:102FB000E81EF91EF7FE06C081E0C81AD108E10834
:102FC00080E8F80AC882D982EA82FB82C701B6018A
:102FD0009F77DF91CF91FF90EF90DF90CF90BF90E0
:102FE000AF909F908F9008958F929F92AF92BF92D3
:102FF000CF92DF92EF92FF926091100170911101D8
:10300000809112019091130161157105810591055F
:1030100021F464E279ED8BE597E02DE133EF41E0B7
:1030200050E00E94621849015A019B01AC01A7EAD5
:10303000B1E40E9481186B017C01ACEEB4EFA501F4
:1030400094010E948F18C60ED71EE81EF91EF7FEC7
:1030500006C081E0C81AD108E10880E8F80AC092E9
:103060001001D0921101E0921201F0921301C701F8
:10307000B6019F77FF90EF90DF90CF90BF90AF9019
:103080009F908F9008956093100170931101809329
:103090001201909313010895F999FECF92BD81BD5D
:1030A000F89A992780B50895262FF999FECF1FBA6F
:1030B00092BD81BD20BD0FB6F894FA9AF99A0FBE61
:1030C00001960895052E97FB1EF400940E9479182E
:1030D00057FD07D00E94941807FC03D04EF40C94BF
:1030E000791850954095309521953F4F4F4F5F4F40
:1030F000089590958095709561957F4F8F4F9F4F64
:1031000008950E94B618A59F900DB49F900DA49F9E
:10311000800D911D11240895B7FF0C9481180E9411
:103120008118821B930B0895A1E21A2EAA1BBB1BC8
:10313000FD010DC0AA1FBB1FEE1FFF1FA217B30783
:10314000E407F50720F0A21BB30BE40BF50B661F99
:10315000771F881F991F1A9469F76095709580955D
:1031600090959B01AC01BD01CF010895A29FB001D4
:10317000B39FC001A39F700D811D1124911DB29FAB
:10318000700D811D1124911D0895991B79E004C0D3
:10319000991F961708F0961B881F7A95C9F7809596
:1031A0000895AA1BBB1B51E107C0AA1FBB1FA6178E
:1031B000B70710F0A61BB70B881F991F5A95A9F7E0
:1031C00080959095BC01CD010895EE0FFF1F0590ED
:0A31D000F491E02D0994F894FFCF6C
:1031DA0010020302FFFFFFFF00E1000000000000F1
:1031EA000100000000C1808100000000000000BD55
:1031FA00065508DE06D3062407E20600070000008B
:10320A00005709D007D30AD20A0D0A00413A506C76
:10321A0061790067616D6500423A436F64650046F3
:10322A0072616E6B0076616E0056656E00436F6E5A
:10323A0067726174756C6174696F6E73004E65773D
:10324A002067616D653F0048696E7400284100621D
:10325A007574746F6E293F00413A005965732042B4
:10326A003A004E6F0053687566666C65006C696D4E
:10327A0069743F00546F206D617920617474656DC3
:04328A0070747300E9
:00000001FF
